:0200000087284F
:1000060083120313A201A30180302306F00080307F
:1000160025067002031D112824082202031835281C
:1000260007160330FB008A30FC005530FD00FD0B3F
:100036001A28FC0B1A28FB0B1A28000000000712CE
:100046000330FB008A30FC005530FD00FD0B2928EB
:10005600FC0B2928FB0B292800000000A20A031923
:06006600A30A07280800B0
:10006C0083120313A201A30180302306F000803019
:10007C0025067002031D4428240822020318862832
:10008C0007140330FB008A30FC005530FD00FD0BDB
:10009C004D28FC0B4D28FB0B4D28000000000710D1
:1000AC000330FB008A30FC005530FD00FD0B5C2852
:1000BC00FC0B5C28FB0B5C28000000008714033051
:1000CC00FB008A30FC005530FD00FD0B6B28FC0B4F
:1000DC006B28FB0B6B280000000087100330FB0023
:1000EC008A30FC005530FD00FD0B7A28FC0B7A2879
:1000FC00FB0B7A2800000000A20A0319A30A3A2875
:02010C000800E9
:10010E008316031388018312880183160710871044
:10011E00071202308312A4000030A5000320053020
:0C012E00A4000030A500362090289C287A
:02400E004A2F37
:00000001FF
